:020000040800F2
:1000000000180020B9070008FD07000823100008A9
:1000100000000000000000000000000000000000E0
:10002000000000000000000000000000FD070008C4
:100030000000000000000000FD070008FD070008A8
:10004000FD070008FD070008FD070008FD07000880
:10005000FD070008FD070008FD070008FD07000870
:10006000FD070008FD070008FD070008FD07000860
:10007000FD070008FD070008FD070008FD07000850
:10008000FD070008FD070008FD070008FD07000840
:10009000FD070008FD070008FD070008FD07000830
:1000A000FD070008FD070008FD070008FD07000820
:1000B000FD070008FD070008FD070008FD07000810
:1000C0005FF808F180B582B000AF7860134B1B7801
:1000D0005A1CD1B2114A11701A007B68D9B2104B68
:1000E00099540E4B1B781A000D4B002199540B4B61
:1000F0001B7801330F2B05D87B680A2B02D07B6855
:10010000002B08D1054B00221A70054B0022190064
:10011000042000F07DFFBD4602B080BD3C040020FD
:100120002C04002080B500AF1A4B1A4A1268012136
:100130000A431A60174B174A526817490A405A6017
:10014000144B144A126815490A401A60114B114A9F
:10015000126813490A401A600E4B0E4A5268114940
:100160000A405A600B4B0B4AD26A0F218A43DA626B
:10017000084B084A126B0C490A401A63054B054AA2
:10018000526B01218A435A63024B00229A60C04697
:10019000BD4680BD001002400CB8FFF8FFFFF6FE20
:1001A000FFFFFBFFFFFFC0FFACFEFFFF80B582B08B
:1001B00000AF78600A00FB1C1A70FB1C1B78002B38
:1001C00006D0094B084A51697A680A435A6106E029
:1001D000054B054A52697968C9430A405A61C046CD
:1001E000BD4602B080BDC0460010024080B586B05A
:1001F00000AF78607B683B610023FB600A4B7B614A
:1002000009E00023FB6002E0FB680133FB60FA6851
:100210007B699A42F8DB3B695A1E3A61002BF0D1A8
:10022000C046BD4606B080BDFF0F000080B582B05D
:1002300000AF78607B68012213407B607B68002BF5
:1002400012D0002000F042FA134B1B681B68180004
:10025000FFF7CCFF00F05CFA0F4B1B6804331B6800
:100260001800FFF7C3FF12E0002000F02FFA0A4B3E
:100270001B6808331B681800FFF7B8FF00F048FA46
:10028000054B1B680C331B681800FFF7AFFFC04617
:10029000BD4602B080BDC0464004002080B582B09B
:1002A00000AF002000F012FA134B1B681B68180007
:1002B000FFF79CFF00F02CFA0200FB1D1A700E4B9A
:1002C0001B6810331B681800FFF790FF00F020FA3E
:1002D0000300DAB2FB1D01210A401A70064B1B68AD
:1002E00014331B681800FFF781FFFB1D1B781800F3
:1002F000BD4602B080BDC0464004002080B500AFBE
:1003000000F0C0F9034B044A1A6000F05DF8C046E3
:10031000BD4680BD40040020BC12000880B582B0FC
:1003200000AFFB1D00221A70184B1B6818331B68A6
:100330001800FFF75BFF002000F0C8F9134B1B68A3
:100340001C331B681800FFF751FF00F0E1F90F4B59
:100350001B6820331B681800FFF748FF00F0D8F92E
:100360000200012313405A425341DAB2FB1D1A70B6
:10037000064B1B6824331B681800FFF737FFFB1D73
:100380001B781800BD4602B080BDC0464004002066
:1003900080B584B000AF78600023FB600023FB6071
:1003A0000BE07B68012213401800FFF73FFF7B68DA
:1003B0005B107B60FB680133FB60FB68072BF0DDA3
:1003C000C046BD4604B080BD80B582B000AF0023FA
:1003D0007B60104B00221A700F4B00221A700F4BDB
:1003E00000221A7007237B600AE00D4A7B68D3184D
:1003F00000221A707B68002B06D07B68013B7B6073
:100400007B68002BF1D100E0C046C046BD4602B07B
:1004100080BDC0464C0400204E0400204D04002046
:100420004404002080B586B000AF78601723FB1825
:1004300001221A701623FB1800221A701523FB18CC
:1004400000221A701323FB1801221A701423FB18C0
:1004500000221A70874B1B78002B00D0D8E0FFF7E2
:100460005DFF031E0AD1844B00221A70814B0022CB
:100470001A70824B00221A700023F6E0F020FFF77A
:1004800087FFFFF70BFF02000B23FB181A70FFF723
:1004900005FF02000A23FB181A700B23FB181B78B8
:1004A000012B05D10A23FB181B78012B00D19AE000
:1004B0000B23FA180A23FB1812781B789A4206D0ED
:1004C0001223FB180B22BA1812781A7038E06A4B04
:1004D0001B781722BA1812789A4210D21523FB18EB
:1004E0001B78674AD35C1322BA1812781340DBB228
:1004F0005A1E9341DAB21223FB181A700BE05E4BBE
:100500001B781722BA181278D31A5A425341DAB21A
:100510001223FB181A701223FB181B78002B0FD123
:100520001623FB181722BA1812781A701623FB1814
:100530001B78082B04D8514B1622BA1812781A705F
:100540001223FB181B78012B0FD11523FB181B78E6
:100550001522BA1812784A49895C1322BA181278FF
:100560000A43D1B2464AD15413E01523FB181B7835
:100570001522BA18127842498A5C52B213217918AE
:10058000097849B2C94349B20A4052B2D1B23C4A91
:10059000D1541223FB181B781800FFF747FE1723CE
:1005A000FB181A781723FB1801321A701323FA1854
:1005B0001323FB181B78DB1813701323FB181B780D
:1005C000002B0AD11523FB181A781523FB180132CA
:1005D0001A701323FB1801221A701523FB181B78BD
:1005E000072B00D84DE71723FB181B78402B0FD99A
:1005F000214B1622BA1812781A701F4B1B78002B49
:1006000002D11C4B01221A701423FB1801221A700C
:100610001423FB181B78002B03D0194B1B78002BDD
:100620000DD1154B00221A70124B00221A70134B79
:1006300000221A701423FB1800221A7012E0002303
:10064000FB600023FB600AE0FB687A68D3180C4962
:10065000FA688A1812781A70FB680133FB60FB682D
:10066000072BF1DD1423FB181B781800BD4606B0DC
:1006700080BDC0464E0400204C0400204D040020E4
:100680004404002080B500AF80239B0201211800A4
:10069000FFF78CFD0C4B09221A600B4B01221A71DB
:1006A000094B01225A71084B00229A71064B012214
:1006B000DA71054A9023DB051100180000F014FCE4
:1006C000C046BD4680BDC0466004002080B582B0F3
:1006D00000AF78609023DB059022D205126880215C
:1006E000C9020A431A607B68012B04D19023DB0501
:1006F000902252019A617B68002B04D19023DB0584
:10070000902252019A61C046BD4602B080BDC046EB
:1007100080B500AF9023DB059022D205126807490F
:100720000A401A609023DB051B8A9BB21A009023B3
:100730005B0113401800BD4680BDC046FFFFF3FFBC
:1007400080B582B000AF00F077FCFFF7EBFC154BF3
:10075000180000F06FFBFFF7D1FD134B180000F0FD
:1007600069FBFB1C1B781800FFF75CFE031E13D00F
:1007700007237B600CE00D4A7B68D3181B781A00B6
:100780000B4B1100180000F03DFB7B68013B7B60C8
:100790007B68002BEFDAE4E7064B180000F032FB31
:1007A000DFE7C0460C1300082413000850040020A3
:1007B0002C13000834130008002103E00A4B5B5897
:1007C0004350043109480A4B42189A42F6D3094A69
:1007D00002E0002313600432074B9A42F9D300F081
:1007E0002BFCFFF7ADFF7047F0130008000000205E
:1007F0002C0400202C04002070040020FEE70000E0
:1008000080B582B000AF0200FB1D1A70FB1D1B7883
:100810001800FFF757FCC046BD4602B080BDC04679
:1008200080B582B000AF78600A00FB1C1A707B684C
:10083000FA1C12781A7001231800BD4602B080BD60
:1008400080B584B000AF786039600023FB600AE0B7
:100850007B685A1C7A603A68511C396012781A70A9
:10086000FB680133FB603B681B78002BF0D1FB6811
:100870001800BD4604B080BD90B587B000AFF860E9
:100880007A603B600B23FB180A1C1A7000237B6103
:100890007B68013B7B603B68092B26D93B680A21BA
:1008A000180000F07FFC03001C007A680B23FB1883
:1008B0001978F8682300FFF7DFFF03007B617B698D
:1008C000FA68D318FB6013E00B23FB181A78FB6857
:1008D00011001800FFF7A4FFFB680133FB607B6980
:1008E00001337B617B68013B7B607B68002BEBDC29
:1008F0003B680A21180000F0DBFC0B00DBB2303350
:10090000DAB2FB6811001800FFF78AFF02007B696A
:100910009B187B617B691800BD4607B090BDC0463F
:1009200090B587B000AFF8607A603B600B23FB188E
:100930000A1C1A7000237B613B68002B03DA3B68BA
:100940005B423B6101E03B683B617B68013B7B6054
:100950003B69092B2BD93B68002B12DA3B690A2132
:10096000180000F01FFC03005B421C007A680B2398
:10097000FB181978F8682300FFF7D2FF03007B61AA
:1009800010E03B690A21180000F00CFC03001C0079
:100990007A680B23FB181978F8682300FFF7C0FF6B
:1009A00003007B617B69FA68D318FB6029E03B6830
:1009B000002B14DA7B68013B7B6010E00B23FB18F3
:1009C0001A78FB6811001800FFF72AFFFB68013353
:1009D000FB607B6901337B617B68013B7B607B68EB
:1009E000002BEBDC3B68002B0BDAFB682D21180099
:1009F000FFF716FF02007B699B187B61FB680133E0
:100A0000FB603B690A21180000F052FC0B00DBB2CE
:100A10003033DAB2FB6811001800FFF701FF020063
:100A20007B699B187B617B691800BD4607B090BD50
:100A3000B0B588B002AFF86008007A6019000B23E7
:100A4000FB18021C1A700A23FB180A1C1A700023D8
:100A50007B617B68013B7B60BB6A1B0928D0BB6A5A
:100A60001B090A22BA1815787C680B22BA1811786B
:100A7000F86800932B002200FFF7DAFF02007B6981
:100A80009B187B617B69FA68D318FB6013E00B232A
:100A9000FB181A78FB6811001800FFF7C1FEFB680D
:100AA0000133FB607B6901337B617B68013B7B60C9
:100AB0007B68002BEBDCBB6A0F221340092B0CD8A0
:100AC000BB6ADBB20F221340DBB23033DAB2FB6811
:100AD00011001800FFF7A4FE1DE00A23FB181B7885
:100AE000002B0CD0BB6ADBB20F221340DBB23733D2
:100AF000DAB2FB6811001800FFF792FE0BE0BB6A48
:100B0000DBB20F221340DBB25733DAB2FB681100BD
:100B10001800FFF785FE7B6901337B617B69180054
:100B2000BD4606B0B0BDC04690B58BB002AFF86010
:100B3000B9607A603B600023BB6100237B61FB6886
:100B4000002B00D1E2E0FB6800221A70DEE07B6837
:100B50001B78252B0BD0FB685A1CFA607A68511C55
:100B6000796012781A707B6901337B61CEE07B6813
:100B700001331B78252B0BD1FB685A1CFA60252208
:100B80001A707B6802337B607B6901337B61BDE057
:100B90001F23FB1820221A701E23FB1800221A7034
:100BA0007B6801337B607B681B78302B1AD11F2355
:100BB000FB1830221A707B6801337B6012E01E2321
:100BC000FB181B781A1C9200D318DB18DAB27B686A
:100BD0001B78D318DAB21E23FB18303A1A707B68E0
:100BE00001337B607B681B782F2B03D97B681B78D4
:100BF000392BE4D91E23FB181A787B69D3181A0005
:100C0000BB689A4207D9BB68D9B27B69DAB21E23A6
:100C1000FB188A1A1A707B681B78583B202B67D800
:100C20009A004A4BD3181B689F461E23FB181C785A
:100C30003B681A1D3A601A681F23FB181978F86878
:100C400013002200FFF76CFE0300BB6153E01E237C
:100C5000FB181C783B681A1D3A601A681F23FB18A2
:100C60001978F86813002200FFF706FE0300BB6145
:100C700041E01E23FB181C783B681A1D3A601B6874
:100C80001F22BA181178F868009300232200FFF79A
:100C9000CFFE0300BB612EE01E23FB181C783B68CF
:100CA0001A1D3A601B681F22BA181178F868009361
:100CB00001232200FFF7BCFE0300BB611BE03B6881
:100CC0001A1D3A601A68FB6811001800FFF7B8FD9A
:100CD0000300BB610FE03B681A1D3A601B68DAB283
:100CE000FB6811001800FFF79BFD0300BB6102E0E9
:100CF00001235B4225E07B6801337B60BB69FA68B6
:100D0000D318FB607A69BB69D3187B617B681B7859
:100D1000002B04D07A69BB689A4200D217E77A693F
:100D2000BB689A4203D2FB6800221A7008E0FB6895
:100D3000013BFB60FB6800221A707B69013B7B6111
:100D40007B691800BD4609B090BDC0464813000835
:100D500080B584B000AFF860B9607A607B68BA682B
:100D6000F8686421FFF7E0FE03001800BD4604B0F8
:100D700080BDC04690B5A7B000AFF860B9607A609A
:100D80001023FB18134A13CA13C313CA13C313CA7D
:100D900013C37A68B9683423FB181800FFF7D8FF2B
:100DA0000300632B09DD0C4B1B68DA681023FB186A
:100DB0001100180000F072F8FEE7FA683423FB18FF
:100DC0001100180000F06AF803001800BD4627B0B3
:100DD00090BDC046CC1300082804002080B582B026
:100DE00000AF78603960064B1B689B683A68796889
:100DF0001800FFF7BFFF03001800BD4602B080BD1A
:100E0000280400200FB480B582B000AF1423FB1873
:100E10003B603A683B6911001800FFF7DFFF0300F1
:100E20007B607B681800BD4602B080BC08BC04B083
:100E30001847C04680B582B000AF7860064B1B688B
:100E40009A687B681100180000F028F80300180069
:100E5000BD4602B080BDC0462804002080B582B0E7
:100E600000AF786039600C4B1B689A683B689A4207
:100E700005D0094B1B68DA683B689A4206D17B684B
:100E8000DBB21800FFF7BCFC7B6801E001235B428A
:100E90001800BD4602B080BD2804002080B584B093
:100EA00000AF786039600023FB6013E07B681B783B
:100EB0001A003B6819001000FFF7D0FF0300013350
:100EC00002D101235B420AE0FB680133FB607B68CF
:100ED00001337B607B681B78002BE7D1FB6818002F
:100EE000BD4604B080BDC04680B586B000AF786016
:100EF000396000237B6100233B610023FB600023FA
:100F00007B617CE001227B699A4013003B613B6876
:100F10001B683A691340FB60FA683B699A426BD1DF
:100F20003B681B79012B03D03B681B79022B34D122
:100F30007B689B687A695200032191400A00D24382
:100F40001A407B689A607B689A683B685B791900F5
:100F50007B695B0099400B001A437B689A607B6851
:100F60009B889BB27A6992B2110001228A4092B2A8
:100F7000D24392B213409AB27B689A807B689B8876
:100F80009AB23B689B7919007B699BB299400B0030
:100F90009BB213439AB27B689A807B681B687A691C
:100FA0005200032191400A00D2431A407B681A6024
:100FB0007B681A683B681B7919007B695B00994064
:100FC0000B001A437B681A607B68DB687A6992B20F
:100FD0005200032191400A00D2431A407B68DA6034
:100FE0007B68DA683B68DB7919007B695B009940B4
:100FF0000B001A437B68DA607B6901337B617B6994
:101000000F2B00D87EE7C046BD4606B080BDC04667
:10101000ABBE01E000207047002A00D01060012024
:10102000704706980188034A914202D10430069025
:101030007047FEE7ABBE000080B500AF1B4B1B4AFC
:10104000126801210A431A60184B184A526818495D
:101050000A405A60154B154A126816490A401A6030
:10106000124B124A126814490A401A600F4B0F4A79
:10107000526812490A405A600C4B0C4AD26A0F213E
:101080008A43DA62094B094A126B0D490A401A6316
:10109000064B064A526B01218A435A63034B0022D6
:1010A0009A6000F00FF8C046BD4680BD00100240B7
:1010B0000CB8FFF8FFFFF6FEFFFFFBFFFFFFC0FFCE
:1010C000ACFEFFFF80B582B000AF00237B60002341
:1010D0003B60314B304A1268802149020A431A6052
:1010E0002D4B1A6880239B0213403B607B680133C1
:1010F0007B603B68002B04D17A68A023DB009A4216
:10110000EED1254B1A6880239B02134002D00123A5
:101110003B6001E000233B603B68012B38D11F4B53
:1011200011221A601C4B1C4A52685A601A4B1A4A08
:1011300052685A60184B184A526819490A405A6056
:10114000154B154A5268882149030A435A60124BCD
:10115000114A1268802149040A431A60C0460E4BA6
:101160001A6880239B041340F9D00B4B0A4A52683B
:1011700003218A435A60084B074A526802210A43F6
:101180005A60C046044B5B680C221340082BF9D10F
:10119000C046BD4602B080BD0010024000200240A3
:1011A000FF7FC0FF002243088B4274D303098B42A8
:1011B0005FD3030A8B4244D3030B8B4228D3030C27
:1011C0008B420DD3FF22090212BA030C8B4202D3C9
:1011D0001212090265D0030B8B4219D300E0090AF1
:1011E000C30B8B4201D3CB03C01A5241830B8B42FA
:1011F00001D38B03C01A5241430B8B4201D34B03E3
:10120000C01A5241030B8B4201D30B03C01A524147
:10121000C30A8B4201D3CB02C01A5241830A8B42CC
:1012200001D38B02C01A5241430A8B4201D34B02B5
:10123000C01A5241030A8B4201D30B02C01A524119
:10124000CDD2C3098B4201D3CB01C01A52418309CD
:101250008B4201D38B01C01A524143098B4201D307
:101260004B01C01A524103098B4201D30B01C01A32
:101270005241C3088B4201D3CB00C01A52418308AC
:101280008B4201D38B00C01A524143088B4201D3D9
:101290004B00C01A5241411A00D201465241104639
:1012A0007047FFE701B5002000F006F802BDC04618
:1012B0000029F7D076E770477047C0460600000067
:1012C000400000003C0000000A000000090000008F
:1012D0003700000000000000E001000046000000B0
:1012E0009A01000001000000070000000700000054
:1012F00002000000000000000700000002000000E3
:1013000046000000080000002800000053697374C4
:10131000656D6120696E696369616C697A61646F8A
:10132000210D00004F4B210D0000000025303258E8
:10133000000000004E61646120656E636F6E747220
:1013400061646F2100000000980C0008F00C000898
:10135000F00C0008F00C0008F00C0008F00C00087D
:10136000F00C0008F00C0008F00C0008F00C00086D
:10137000F00C0008D60C00082A0C0008F00C00083D
:10138000F00C0008F00C0008F00C00082A0C000813
:10139000F00C0008F00C0008F00C0008F00C00083D
:1013A000F00C0008F00C0008F00C0008F00C00082D
:1013B000F00C0008BE0C0008F00C00084E0C0008F1
:1013C000F00C0008F00C0008720C000873746469DB
:1013D0006F2E633A20696E637265617365204D41BB
:1013E000585F535452494E475F53495A450A0D00BE
:1013F00000000000000000000100000000000000EC
:1014000000000000000000000000000000000000DC
:1014100000000000000000000000000000000000CC
:1014200000000000000000000000000000000000BC
:1014300000000000000000000000000000000000AC
:0C181000000000000000000000000020AC
:0400000508000000EF
:00000001FF
